:020000040000FA
:020000006E2868
:040002000034003492
:08000800FC00030E8312FD0051
:100010000A08CE008A1183010B1C26280608F03935
:10002000C7000430DA001F30D2000830D300D20BF2
:100030001A28D30B17281C280608F039470603197D
:100040002428DA0B1328C7010B1040280B1D362873
:100050000130CF00D90B34285803FF3A043003197C
:10006000D800D8030430D9000B1140280C1C4028BC
:10007000DB308E000B308F00D508031DD5030C102C
:0E0080004E088A007D0E8300FC0E7C0E0900E7
:0400AC00A001A1010D
:1000B000F5000A30F502A00A031C5F285A28A003A5
:1000C000F5077508A100F5002008A200F030F5063C
:1000D000A20E0F3022067505A200080007309F000F
:1000E0008316F63086000030850083128501C73004
:1000F0008316810083128B018B178B158B160B17C0
:1001000020307B232427B0240A307B238A15F02556
:100110008A11F026003A031DDB26D001D101D5015A
:1001200030309000DB308E000B308F009201910157
:1001300083168C010C1483128C018316803092007C
:1001400083121E309500043092003C309700121547
:100150000330C500C7010130CF000330D80006309E
:10016000D9002727CF080319CF288B130D27E025A7
:10017000D0008426FF3A0319C628FF3AD009031D90
:10018000C328D000CD28D009D004CD28D009031928
:10019000CB28D009CD28FF30D000CF018B170B30F2
:1001A0008A00CC238A110D25D6000B308A00D0237B
:1001B0008A110D25D700CD244508033A03197C2167
:1001C0004708031DE428B2284708A03A0319E92884
:1001D000EC28C7015921B2284708603A0319F128D1
:1001E000F428C7016721B2284708503A0319F928B3
:1001F000FC28C7017221B228471BFF280229C7012A
:100200001421B228C71B05290829C7012121B228BA
:10021000471A0B290E29C7012E21B228C71A112906
:100220001329C7013B21B22801308A001B30450742
:1002300003188A0A82008F29802A512A0800212A5D
:10024000802A01308A002830450703188A0A820074
:10025000A4296D2A352A0800212A6D2A01308A0036
:100260003530450703188A0A8200B829152A1C2A46
:100270000800212A152A01308A0042304507031858
:100280008A0A8200DC29212A1C2A0800212A2E2A17
:10029000A40001308A005030240703188A0A820023
:1002A0000800080008009A2ABA2A942AD12AE72AC4
:1002B000FE2A03304506031D08000130AF00A500EB
:1002C000A600AA00C501B901B725A4210800033082
:1002D0004506031D08001508D23A03190800053029
:1002E0009507080003304506031D0800150803198B
:1002F00008000530950208000024C0307C245B30E3
:100300009A24C2307C245D309A242D309A245B30AC
:100310009A24CF307C245D309A2445240800250897
:10032000023A031DA50A3008013E0319AF032F0846
:10033000B72580307C244723AF0A2F08B725C0306B
:100340007C244723102208002508013A031DA50339
:1003500030080319AF0A2F08B725C0307C24472383
:1003600080307C24AF032F08B72547230B220800D9
:1003700032084821360A031D1A23310A03190800DE
:100380008313263039078400250880002A30390776
:1003900084002F088000B90A0130A5003108AF00A1
:1003A000C0307C242F0AB725472380307C242F08B7
:1003B000B72547230B220800390803190800B903A1
:1003C00083132630390784000008A5002A30390736
:1003D00084000008AF00B725EE290800013025068B
:1003E0000319F329FF29C0307C242F0AB72547239E
:1003F00080307C242F08B72547230B22080080304B
:100400007C242F03B7254723C0307C242F08B72531
:100410004723102208008F307C247F309A24080064
:10042000CF307C247F309A2408004508AE0002308B
:10043000C5000D307C2408002E08C5000E307C2439
:100440000800CD08031D2F250C307C2402307C24AD
:100450000C307C24C501DC21CD0108000C307C244B
:10046000BA22C501DC21CD0108000130CD00A83041
:10047000440784000008F500C030440784000008E9
:100480007506031D492AB830440784000008F500AA
:100490004A2AF50AA830440784007508800096238C
:1004A00008000130CD00A830440784000008F500A2
:1004B000B8304407840000087506031D652AC03063
:1004C000440784000008F500662AF503A8304407B5
:1004D00084007508800096230800C40A3A08830146
:1004E00044060319C40183160313C830831203138F
:1004F000440784000008B8007C240E307C240800E7
:100500004408031D862A3A03C400872AC4038316BD
:100510000313C83083120313440784000008B80093
:100520007C240E307C240800C7010330C500013054
:100530007C2408000D276F086D24831603139A008E
:1005400032309B00831203131E2570086D2483161E
:1005500003139A0033309B00831203131E25710886
:100560006D24831603139A0034309B008312031307
:100570001E250800CD08031DBE2A08008313A830DD
:100580008400000856202208EF00840A0008562044
:100590002208F000840A000856202208F1000027F3
:1005A000080001307C24B830CC000D30CB004B2348
:1005B000051300000000000000008517C71EDE2A9A
:1005C00010307B2301307C241323C701EE29013036
:1005D0007C24C630CC000D30CB004B23C7018513E3
:1005E00000000000000000000517C71EF52A1030AB
:1005F0007B2301307C241323C701EE2901307C24A6
:10060000D430CC000D30CB004B23C7018513082B11
:10061000092B0513C71E0A2B10307B2301307C24C5
:100620001323C701EE295008031D182B851308005A
:10063000051308003508FA003608FB008A25410832
:10064000C5008313263039078400250880002A302E
:10065000390784002F088000B90A831203133C086D
:10066000C9003B08CA003A084C25A12501307C246A
:1006700080307C242F0847233D08CC003E08CB0067
:100680004B23C401E723FF30C4006D220800330868
:10069000CC003408CB004C08C80003300030C60042
:1006A000D40176238A11F800D408031D5C2B780846
:1006B000253A031D632B602B78087C24D401672B1B
:1006C0000130D400672B780803196C2B9A24C60AD2
:1006D000C80A0319CB0A512B830110304602031CB0
:1006E000722B0800C60A20309A246D2B4B088A0012
:1006F0004808820008008A11F7000D30F600F50165
:10070000F50B802BF60B802BF70B7D2B0800F930B7
:10071000F8000430F900F80B8E2BF90B8B2B902B83
:1007200008003530F800F80B932B0800DF00B030DC
:10073000440784000008013A0319A32B0008023A79
:100740000319B52BB62BC830440784000008DE001F
:100750007C245F085620303021079A24DE035E088F
:100760007C24303020079A240800080083015F08A9
:10077000031DBB2BD12BC830440784000008DE00CA
:100780007C244E309A24DE035E087C244F309A2469
:10079000DE035E087C2420309A2402305E077C242D
:1007A0000800C830440784000008DE007C2446307E
:1007B0009A24DE035E087C2446309A24DE035E0819
:1007C0007C244F309A2402305E077C2408003A08CB
:1007D00003190800E0014408E000C4013A08440697
:1007E0000319FD2BC830440784000008A8304407D3
:1007F000840000089623C40AEE2B6008C400080099
:100800008D307C24D0080319162C5009031D0F2CA1
:1008100049309A2444309A244C309A241C2C463077
:100820009A244C309A2444309A241C2C44309A2424
:1008300052309A244E309A248B307C2453309A24A0
:100840002D309A2480307C2454309A242D309A24E0
:100850006F0E0F39303E9A246F080F39303E9A24BC
:100860003A309A24700E0F39303E9A2470080F39AE
:10087000303E9A243A309A24710E0F39303E9A2431
:1008800071080F39303E9A240800E101F501F601A4
:10089000043061070D250319532CC53075077C24DE
:1008A00058089A24582CC53075077C2403309A24A4
:1008B000F50A6108053EE100323A031D482C373045
:1008C0000D250319682CC1307C2458089A2408008F
:1008D000C1307C2403309A240800F500750E0F39CE
:1008E000F6000310F60DF60DF60DF607F6070310E9
:1008F00075080F3976070800E300272740304E2798
:10090000630E0F39903E4E27630E0F39803E4E27FF
:100910006308203A0319942C63080F39903E4E2740
:1009200063080F39803E4E272C276308013A0319CC
:1009300087230800E300272740304E27630E0F3936
:10094000D03E4E27630E0F39C03E4E2763080F3945
:10095000D03E4E2763080F39C03E4E272C27080093
:1009600020307C2415307B2320307C2415307B23E1
:1009700020307C2415307B230C307C2401307B23F9
:100980002C307C2401307B2301307C2401307B23FC
:1009900002307C2401307B23080050080319D42C3A
:1009A00050090319062DEC2C51080319D92C1010ED
:1009B000D5018513D1010619E72C01307B230619D7
:1009C000E72C05135708D500D50D1014080055085D
:1009D000031D0800051708005108013A0319F22CFD
:1009E0001010D50105130130D1008618012D0130FA
:1009F0007B238618012D85135608D500D50D1014BC
:100A000008005508031D0800851708001010D501BF
:100A100005138513FF30D1000800FE01031B7E176C
:100A2000831AFE16831603139B001C141A08031363
:100A300083127E1B0317FE1A831608008316031306
:100A40001C158B138B1B212D55309D00AA309D004A
:100A50009C149C18292D831203138B170800F50191
:100A60008313A830750784000008831603139A00C7
:100A7000831203138313A0307507840000088316C4
:100A800003139B00831203131E25F50A3A0875060B
:100A900003194B2D302D0800E400F6017225A83013
:100AA0007607840065080D2580005D25F60A640838
:100AB000760603195C2D4E2D0800A03076078400C1
:100AC00065088000B0307607840066088000B83082
:100AD0007607840067088000C030760784006808C5
:100AE00080000800F50183170430F50065308400AC
:100AF000053085258A1183138000CA0A0319C90AA3
:100B0000840AF50303190800792D49088A004A0868
:100B100082000800F50183130830F5003A308400A4
:100B200005309C258A118000FA0A0319FB0A840A01
:100B3000F50303190800912D7B088A007A088200CA
:100B40000800F501C83075078400B0258A118000BF
:100B50000008F50A3A0875060319AF2DA22D080002
:100B600040088A003F08750703188A0A8200F700C8
:100B7000F600F703F6030310F60C0310F60C03104F
:100B8000F60C0310F60C0310F60C0310F70D03100F
:100B9000F70D0310F70D8313303084000830F50093
:100BA000D8258000840AF70A8A11F50BD02D080099
:100BB000083076078A000030770703188A0A820017
:100BC0008316031337300D2503195D2E831203138B
:100BD0006F086D2483160313D0008312031370086B
:100BE0006D2483160313D1008313D0306026D230D6
:100BF000840038300D258000840A39300D258000AE
:100C0000D2306026D43084003A300D258000840A2A
:100C10003B300D258000D4306026D83084003C3035
:100C20000D258000D93084003D300D258000840AD8
:100C30003E300D258000D930602683160313031043
:100C4000031152085002031C5A2E031D2B2E530869
:100C50005102031C5A2E54085002031C362E031D49
:100C60005A2E55085102031C362E5A2E58080319C5
:100C70005A2ED3070318D20A52085002031C572ECB
:100C8000031D462E53085102031C572E5A08D30742
:100C90000318D20A5908D20752085002031C5A2ED0
:100CA000031D362E53085102031C5A2E362E831272
:100CB0000313013483120313003483120313FF342C
:100CC000031003118400000883120313E900EB00F2
:100CD000EA010630EC00E90DEA0D0318EA0AEC0B14
:100CE0006B2E0430EC006B08E902031CEA03EC0BEA
:100CF000742E840A0008E9070318EA0A69088000CC
:100D000084036A0880000800FF01ED0183120313C9
:100D100004307F070D250319D02EED0A6F086D24CE
:100D200083160313D0008312031370086D248316F7
:100D30000313D1008313D0306026D23084007F08A3
:100D40000D258000840A7F08013E0D258000D230E9
:100D50006026D43084007F08023E0D258000840A7E
:100D60007F08033E0D258000D430602683160313D0
:100D700054085002031CC32E031DD02E55085102E7
:100D8000031CC32ED02E50085202031C572E031DE5
:100D9000D02E51085302031C572E031DD02E572E60
:100DA0007F08053EFF00323A031D862EED08031D25
:100DB0005A2E5D2E08002727D0304E2700304E27B0
:100DC00055304E2759304E2705304E272C272727E0
:100DD000D0304E2707304E2710304E272C270800E2
:100DE000EE012727D0304E2700304E272727D1305D
:100DF0004E2731274B27F3002C27F31F00340134F3
:100E00002727D0304E2700304E2771084E27700814
:100E10004E276F084E272C270800EE012727D030D9
:100E20004E2700304E272727D1304E27312748271D
:100E30007F39F100312748277F39F00031274B27D0
:100E40003F39EF002C2708006D277A2708007A2702
:100E50006D27732780270800802773277A276D273F
:100E600008006D27EE010830F2007A27372F382F5F
:100E7000851C3B2F3E2F0310EE0D412F0314EE0D6A
:100E8000412F8027432F442FF20B352F6E08080087
:100E90007327872708006D2787270800F40008308C
:100EA000F20080270310F40D031C572F5A2F7327CD
:100EB00087275D2F6D2787275D2FF20B522F6D2718
:100EC0007A27F201F20A03196A2F8518622F73102C
:100ED00080270800731480270800831603138514E5
:100EE00083120313080085108316031385108312E1
:100EF0000313080083160313051483120313080059
:100F000005108316031305108312031308008316BC
:100F100003130514831203138D2F8E2F05108316D0
:0E0F20000313051083120313952F962F08005C
:101000000034FF340334FA340B34E0340A34FF3450
:1010100001340634003404340C34FF34FF34FF341C
:101020000134353400340F340C34FF34FF34FF34D2
:101030000134373400341D340C34FF34FF34FF34B2
:10104000FF34FF3405342C340C34FF34FF34FF34C8
:1010500000340834003431340C34FF34FF34FF34AE
:10106000FF340D34003441340C34FF34FF34FF348A
:101070000034FF34003450340C34C8340934FF34A5
:101080000134FF3400345B340C34D0340934FF3481
:101090000134FF3400346B340C34D8340934FF3459
:1010A0000134FF3400347A340C34E0340934FF3432
:1010B000FF34FF3400348A340C34E8340934FF340C
:1010C0000034173400349A340C34FF34FF34FF34C6
:1010D00001341A340034A6340C34FF34FF34FF34A6
:1010E00001341D340034B2340C34FF34FF34FF3487
:1010F000013420340034BE340C34FF34FF34FF3468
:10110000013423340034CA340C34FF34FF34FF3448
:10111000013426340034D6340C34FF34FF34FF3429
:10112000013429340034E2340C34FF34FF34FF340A
:1011300001342C340034EE340C34FF34FF34FF34EB
:1011400001342F340034FA340C34FF34FF34FF34CC
:10115000FF343234003406340D34FF34FF34FF34AE
:101160000034FF34003458340D34F0340934FF3483
:101170000134FF34003463340D34F8340934FF345F
:10118000FF34FF34003472340D3400340A34FF3439
:101190000034FF34003458340D3408340A34FF343A
:1011A0000134FF34003463340D3410340A34FF3416
:1011B000FF34FF34003472340D3418340A34FF34F1
:1011C0000034FF34003458340D3420340A34FF34F2
:1011D0000134FF34003463340D3428340A34FF34CE
:1011E000FF34FF34003472340D3430340A34FF34A9
:1011F0000034FF34003458340D3438340A34FF34AA
:101200000134FF34003463340D3440340A34FF3485
:10121000FF34FF34003472340D3448340A34FF3460
:101220000034FF34003458340D3450340A34FF3461
:101230000134FF34003463340D3458340A34FF343D
:10124000FF34FF34003472340D3460340A34FF3418
:101250000034FF34003458340D3468340A34FF3419
:101260000134FF34003463340D3470340A34FF34F5
:10127000FF34FF34003472340D3478340A34FF34D0
:101280000034FF34003458340D3480340A34FF34D1
:101290000134FF34003463340D3488340A34FF34AD
:1012A000FF34FF34003472340D3490340A34FF3488
:1012B0000034FF34003458340D3498340A34FF3489
:1012C0000134FF34003463340D34A0340A34FF3465
:1012D000FF34FF34003472340D34A8340A34FF3440
:1012E0000034FF34003458340D34B0340A34FF3441
:1012F0000134FF34003463340D34B8340A34FF341D
:10130000FF34FF34003472340D34C0340A34FF34F7
:101310000034FF34003458340D34C8340A34FF34F8
:101320000134FF34003463340D34D0340A34FF34D4
:10133000FF34FF34003472340D34D8340A34FF34AF
:101340000034FF34003413340D34E8340A34FF34ED
:10135000FF34FF34003422340D34F0340A34FF34C7
:101360000034FF34063431340D34FF34FF34FF349D
:101370000134FF34073440340D34FF34FF34FF347C
:10138000FF34FF3408344F340D34FF34FF34FF345E
:101390000134D4340B34B0340D34F9340B3401340B
:1013A0000234D8340B3481340D34F4340B3401342A
:1013B0000234E0340B3481340D34F4340B34013412
:1013C0000134E8340B3497340D34F9340B340134E0
:1013D0000234EC340B3481340D34F4340B340134E6
:1013E000013408340B34B0340D34F9340B34013487
:1013F0000234F8340A3481340D34F4340B340134BB
:10140000023400340B3481340D34F4340B340134A1
:1014100001341C340B34B0340D34F9340B34013442
:1014200002340C340B3481340D34F4340B34013475
:10143000023414340B3481340D34F4340B3401345D
:10144000013430340B34B0340D34F9340B340134FE
:10145000023420340B3481340D34F4340B34013431
:10146000023428340B3481340D34F4340B34013419
:10147000013444340B34B0340D34F9340B340134BA
:10148000023434340B3481340D34F4340B340134ED
:1014900002343C340B3481340D34F4340B340134D5
:1014A000013458340B34B0340D34F9340B34013476
:1014B000023448340B3481340D34F4340B340134A9
:1014C000023450340B3481340D34F4340B34013491
:1014D00001346C340B34B0340D34F9340B34013432
:1014E00002345C340B3481340D34F4340B34013465
:1014F000023464340B3481340D34F4340B3401344D
:10150000013480340B34B0340D34F9340B340134ED
:10151000023470340B3481340D34F4340B34013420
:10152000023478340B3481340D34F4340B34013408
:10153000013494340B34B0340D34F9340B340134A9
:10154000023484340B3481340D34F4340B340134DC
:101550000234A0340B3481340D34F4340B340134B0
:101560000134A8340B34B0340D34F9340B34013465
:10157000023498340B3481340D34F4340B34013498
:101580000234A0340B3481340D34F4340B34013480
:101590000134BC340B34B0340D34F9340B34013421
:1015A0000234AC340B3481340D34F4340B34013454
:1015B0000234B4340B3481340D34F4340B3401343C
:1015C0000334C0340B34A3340D34F6340B340534F7
:1015D0000134CC340B348B340D34F9340B340134F6
:1015E0000134D0340B348B340D34F9340B340134E2
:1015F00000340134003417340134013400343B34F6
:1016000002340134003417340334013400343B34E1
:101610000434033400340134053401340034173405
:101620000634013400343B340734013400341734B9
:101630000834013400343B340934033400340134B9
:101640000A340134003417340B34013400343B3491
:101650000C340134003417340D34013400343B347D
:101660000E340334003401340F34013400341734A1
:101670001034013400343B34113401340034173455
:101680001234013400343B34133403340034013455
:1016900014340134003417341534013400343B342D
:1016A00016340134003417341734013400343B3419
:1016B000183403340034013419340134003417343D
:1016C0001A34013400343B341B34013400341734F1
:1016D0001C34013400343B341D34033400340134F1
:1016E0001E340134003417341F34013400343B34C9
:1016F00020340134003417342134013400343B34B5
:1017000022340334003401342334013400341734D8
:101710002434013400343B3425340134003417348C
:101720002634013400343B3427340334003401348C
:1017300028340134003417342934013400343B3464
:101740002A340134003417342B34013400343B3450
:101750002C340334003401342D3401340034173474
:101760002E34013400343B342F3401340034173428
:101770003034013400343B34313403340034013428
:1017800032340134003417343334013400343B3400
:101790003434013400343B343534013400346334A0
:1017A00036340134003463343734033400340134C4
:1017B00038340134003417343934013400343B34C4
:1017C0003A340134003417343B34013400343B34B0
:1017D0003C340134003463343D34013400340C347F
:1017E0003E34013400343B34C234C534C234C534D1
:1017F000C834C334533465347434203443346C34C3
:101800006F3463346B3400345334653474342034AF
:10181000543469346D346534723473340034533461
:1018200065347434203446345334773420344434AB
:1018300065346C346134793400344D3461346E3441
:101840002E3420344F34703465347234613474343F
:1018500069346F346E340034453478346934743408
:10186000003453346534743420344334793463346D
:101870006C3465342034543469346D3465347234D6
:101880000034533465347434203441344234533496
:101890002034543469346D34653472347334003414
:1018A00053346534743420345334743461347434B0
:1018B0007534733400345334653474342034543400
:1018C00069346D3465347234203453347434613483
:1018D00072347434003453346534743420345434E2
:1018E00069346D34653472342034533474346F3455
:1018F00070340034533465347434203446346C34DA
:101900006F346F34643420344334793463346C344A
:1019100065340034533465347434203444347234C0
:10192000613469346E3420344334793463346C3434
:101930006534003453346534743420345434693499
:101940006D346534723420343134003453346534AA
:1019500074342034543469346D3465347234203432
:10196000323400345334653474342034543469349C
:101970006D34653472342034333400345334653478
:1019800074342034543469346D3465347234203402
:10199000343400345334653474342034543469346A
:1019A0006D34653472342034353400345334653446
:1019B00074342034543469346D34653472342034D2
:1019C0003634003453346534743420345434693438
:1019D0006D34653472342034373400345334653414
:1019E00074342034543469346D34653472342034A2
:1019F0003834003453346534743420345434693406
:101A00006D346534723420343934003453346534E1
:101A100074342034543469346D3465347234203471
:101A20003134303400345334653474342034553414
:101A30004634533477342034443465346C34613460
:101A40007934003453346534743420344C3446349F
:101A5000533477342034443465346C34613479340D
:101A600000344D3461346E34753461346C346C340C
:101A70007934203446346C346F346F346434003439
:101A80004D3461346E34753461346C346C34793473
:101A9000203444347234613469346E340034533445
:101AA000653474342034493464346C34653400341F
:101AB000533465347434203453347434613474349E
:101AC00075347334003453346534743420344634FC
:101AD0006C346F346F3464342034543469346D346E
:101AE00065340034533465347434203444347234EF
:101AF000613469346E342034543469346D3465345F
:101B000000342534C0345B34483448343A344D34DE
:101B10004D345D3400342534C0345B3430343034DB
:101B200030345D3420345334653463340034253428
:101B3000C0345B343034303430345D3420344D3490
:101B400069346E3400342534C0345B34483448344E
:101B50003A344D344D343A34533453345D340034D4
:101B60002534C0345B3420344F346E345D3400345B
:101B70002534803446346C346F346F3464346934C3
:101B80006E3467342E342E342E34003425348034B1
:101B900044347234613469346E3469346E34673479
:101BA0002E342E342E3400342534803449346434B9
:101BB0006C3469346E3467342E342E342E34003451
:101BC0002034003459346534733400344E346F3467
:101BD00000344F344E3400344F34463446340034ED
:101BE00040308A117C24DC018A150326DD000D308B
:101BF0008A005D088A119A248A15DC0A28305C065E
:101C0000031DF42D08000E308A000A305C0703180B
:101C10008A0A820000340E3415341D3411340E3417
:101C20000034003400340E3411341D3415340E34B5
:101C30000034003400340E341134173415340E34AB
:101C40000034003400340E341534173411340E349B
:101C50000034003404340E340E340E341F34003497
:041C60000434003414
:02400E00101E82
:00000001FF
