:100000006E28003400340000FC00030E8312FD0053
:100010000A08CE008A1183010B1C27280608F03934
:10002000C7000530DA001F30D2000830D300D20BF1
:100030001A28D30B17281C280608F0394706031D79
:100040002428DA0B13282528C7010B1041280B1D83
:1000500037280130CF00D90B35285803FF3A043038
:100060000319D800D8030530D9000B1141280C1C06
:100070004128DF308E000B308F00D508031DD503DB
:100080000C104E088A007D0E8300FC0E7C0E0900C9
:100090000000000000000000000000000000000060
:1000A000000000000000000000000000A001A1010D
:1000B000F5000A30F502A00A031C5F285A28A003A5
:1000C000F5077508A100F5002008A200F030F5063C
:1000D000A20E0F3022067505A200080007309F000F
:1000E0008316F63086000030850083128501C73004
:1000F0008316810083128B018B178B158B160B17C0
:10010000203048233127AC240A3048238A15E425BF
:100110008A11FD26003A031DE826D001D101D50140
:1001200030309000DB308E000B308F009201910157
:1001300083168C010C1483128C018316803092007C
:1001400083121E309500043092003C309700121547
:100150000330C500C7010130CF000330D80006309E
:10016000D9003427CF080319BD288B131A27C825B7
:10017000D0009526D004CF018B170B308A00CC23FA
:100180008A11F524D6000B308A00D0238A11F52479
:10019000D700C9244508033A03195E214708031D07
:1001A000D228B2284708A03A0319D728DA28C7016D
:1001B0004721B2284708603A0319DF28E228C7011F
:1001C0005121B2284708503A0319E728EA28C70105
:1001D0005821B228471BED28F028C7010221B22878
:1001E000C71BF328F628C7010F21B228471AF928A0
:1001F000FC28C7011C21B228C71AFF280129C70102
:100200002921B22801308A000930450703188A0ADB
:1002100082007129622A332A0800032A622A0130E7
:100220008A001630450703188A0A820086294F2A59
:10023000172A0800032A4F2A01308A002330450775
:1002400003188A0A82009A29F729FE290800032A3E
:10025000F72901308A003030450703188A0A8200E6
:10026000BE29032AFE290800032A102AA40001300F
:100270008A003E30240703188A0A8200080008001A
:1002800008007C2A9C2A762AB32AC92A0800013051
:10029000AF00A500A600AA00C501B9019F258621CF
:1002A00008001508D23A0319080005309507080020
:1002B000150803190800053095020800CD23C03049
:1002C00078245B309624C23078245D3096242D301B
:1002D00096245B309624CF3078245D309624092410
:1002E00008002508023A031DA50A3008013E03193B
:1002F000AF032F089F25803078241423AF0A2F08DE
:100300009F25C03078241423F22108002508013AE3
:10031000031DA50330080319AF0A2F089F25C0301D
:100320007824142380307824AF032F089F251423CA
:10033000ED21080032083621360A031DE722310A72
:10034000031908008313263039078400250880002C
:100350002A30390784002F088000B90A0130A5002F
:100360003108AF00C03078242F0A9F251423803035
:1003700078242F089F251423ED210800390803193C
:100380000800B90383132630390784000008A5004C
:100390002A30390784000008AF009F25D0290800C3
:1003A000013025060319D529E129C03078242F0A08
:1003B0009F251423803078242F089F251423ED21B6
:1003C0000800803078242F039F251423C030782420
:1003D0002F089F251423F22108008F3078247F30C6
:1003E00096240800CF3078247F30962408004508F2
:1003F000AE000230C5000D30782408002E08C5007C
:100400000E3078240800CD08031D17250C30782401
:10041000023078240C307824C501BE21CD010800BB
:100420009C22C501BE21CD010C307824080001308A
:10043000CD00A830440784000008F500C030440710
:10044000840000087506031D2B2AB8304407840079
:100450000008F5002C2AF50AA83044078400750826
:100460008000632308000130CD00A83044078400D9
:100470000008F500B8304407840000087506031D25
:10048000472AC030440784000008F500482AF503D5
:10049000A830440784007508800063230800C40A5C
:1004A0003A08830144060319C40183160313C830B4
:1004B00083120313440784000008B80078240E3028
:1004C000782408004408031D682A3A03C400692AF6
:1004D000C40383160313C830831203134407840034
:1004E0000008B80078240E3078240800C7010330D3
:1004F000C5000130782408001A276E086924831685
:1005000003139A0032309B008312031306256F08F1
:100510006924831603139A0033309B00831203135C
:10052000062570086924831603139A0034309B0053
:100530008312031306250800CD08031DA02A080016
:100540008313A8308400000856202208EE00840A95
:10055000000856202208EF00840A000856202208CE
:10056000F0000D27080001307824B830CC000D30A1
:10057000CB001823051300000000000000008517C1
:10058000C71EC02A1030482301307824E022C7015A
:10059000D02901307824C630CC000D30CB00182390
:1005A000C701851300000000000000000517C71EEA
:1005B000D72A1030482301307824E022C701D029FF
:1005C0005008031DE52A85130800051308003508A7
:1005D000FA003608FB0072254108C5008313263057
:1005E00039078400250880002A30390784002F0845
:1005F0008000B90A831203133C08C9003B08CA00F3
:100600003A083425892501307824803078242F0851
:1006100014233D08CC003E08CB001823C401B423AA
:10062000FF30C4004F2208003308CC003408CB0050
:100630004C08C80003300030C600D40143238A119F
:10064000F800D408031D292B7808253A031D302B08
:100650002D2B78087824D401342B0130D400342B8E
:1006600078080319392B9624C60AC80A0319CB0A3D
:100670001E2B830110304602031C3F2B0800C60AC4
:10068000203096243A2B4B088A0048088200080044
:100690008A11F7000D30F600F501F50B4D2BF60B26
:1006A0004D2BF70B4A2B0800F930F8000430F90005
:1006B000F80B5B2BF90B582B5D2B08003530F8003D
:1006C000F80B602B0800DE00B030440784000008FF
:1006D000013A0319702B0008023A0319822B832B6D
:1006E000C830440784000008DD0078245E085620E6
:1006F000303021079624DD035D0878243030200750
:1007000096240800080083015E08031D882B9E2B99
:10071000C830440784000008DD0078244E30962459
:10072000DD035D0878244F309624DD035D087824CE
:100730002030962402305D0778240800C830440732
:1007400084000008DD00782446309624DD035D082F
:10075000782446309624DD035D0878244F309624B3
:1007600002305D07782408003A0803190800DF0109
:100770004408DF00C4013A0844060319CA2BC830F4
:10078000440784000008A83044078400000863235D
:10079000C40ABB2B5F08C40008008D307824D00841
:1007A0000319D32BDA2B44309624523096244E3042
:1007B0009624E02B463096244C30962444309624E0
:1007C0008B307824533096242D3096248030782432
:1007D000543096242D3096246E0E0F39303E9624D8
:1007E0006E080F39303E96243A3096246F0E0F393A
:1007F000303E96246F080F39303E96243A309624C6
:10080000700E0F39303E962470080F39303E962412
:100810000800E001F501F60104306007F524031932
:10082000172CC53075077824580896241C2CC53021
:100830007507782403309624F50A6008053EE00029
:10084000323A031D0C2C3730F52403192C2CC130FF
:100850007824580896240800C13078240330962460
:100860000800E001E10104306007F5240319622C5F
:1008700000306007F524E1006E0869246106031D5D
:100880004D2C01306007F524E1006F0869246106F2
:10089000031D4D2C0130D000080002306007F52404
:1008A000E1006E0869246106031D622C03306007B5
:1008B000F524E1006F0869246106031D622C0030F5
:1008C000D00008006008053EE000323A031D332CDA
:1008D0000800F500750E0F39F6000310F60DF60D41
:1008E000F60DF607F607031075080F3976070800AE
:1008F000E200342770305B27620E0F39903E5B2791
:10090000620E0F39803E5B276208203A0319902C53
:1009100062080F39903E5B2762080F39803E5B27E3
:1009200039276208013A031954230800E2003427EA
:1009300070305B27620E0F39D03E5B27620E0F3995
:10094000C03E5B2762080F39D03E5B2762080F3933
:10095000C03E5B2739270800203078241530482313
:10096000203078241530482320307824153048234F
:100970000C307824013048232C307824013048236F
:100980000130782401304823023078240130482394
:1009900008005008031DE02C51080319D12C101039
:1009A000D5018513D1010619DB2C05135708D50095
:1009B000D50D101408005508031D08000517080080
:1009C000D108031DE52C1010D50105130130D1000D
:1009D0008618F02C85135608D500D50D1014080084
:1009E0005508031D080085170800FE01031B7E172C
:1009F000831AFE16831603139B001C141A08031394
:100A000083127E1B0317FE1A831608008316031336
:100A10001C158B138B1B092D55309D00AA309D0092
:100A20009C149C18112D831203138B170800F501D9
:100A30008313A830750784000008831603139A00F7
:100A4000831203138313A0307507840000088316F4
:100A500003139B00831203130625F50A3A08750653
:100A60000319332D182D0800E300F6015A25A8308C
:100A7000760784006408F52480004525F60A63089B
:100A800076060319442D362D0800A0307607840021
:100A900064088000B0307607840065088000B830B4
:100AA0007607840066088000C030760784006708F7
:100AB00080000800F50183170430F50064308400DD
:100AC00005306D258A1183138000CA0A0319C90AEB
:100AD000840AF50303190800612D49088A004A08B1
:100AE00082000800F50183130830F5003A308400D5
:100AF000053084258A118000FA0A0319FB0A840A4A
:100B0000F50303190800792D7B088A007A08820012
:100B10000800F501C8307507840098258A11800007
:100B20000008F50A3A0875060319972D8A2D080062
:100B300040088A003F08750703188A0A8200F700F8
:100B4000F600F703F6030310F60C0310F60C03107F
:100B5000F60C0310F60C0310F60C0310F70D03103F
:100B6000F70D0310F70D8313303084000830F500C3
:100B7000C0258000840AF70A8A11F50BB82D0800F9
:100B8000083076078A000030770703188A0A820047
:100B9000831603133730F52403193E2E83120313F3
:100BA0006E08692483160313D000831203136F08A1
:100BB000692483160313D1008313D0304126D23029
:100BC00084003830F5248000840A3930F524800010
:100BD000D2304126D43084003A30F5248000840A93
:100BE0003B30F5248000D4304126D83084003C309E
:100BF000F5248000D93084003D30F5248000840A3B
:100C00003E30F5248000D930412683160313520864
:100C10005002031C3E2E031D112E53085102031CCB
:100C20003E2E54085002031C1C2E031D3E2E550858
:100C30005102031C1C2E3E2E5808D3070318D20A5B
:100C400052085002031C3B2E031D2A2E530851024A
:100C5000031C3B2E5A08D3070318D20A5908D2079F
:100C600052085002031C3E2E031D1C2E5308510235
:100C7000031C3E2E1C2E8312031301348312031314
:100C800000348400000883120313E800EA00E9013D
:100C90000630EB00E80DE90D0318E90AEB0B4A2ECC
:100CA0000430EB006A08E802031CE903EB0B532E47
:100CB000840A0008E8070318E90A6808800084032A
:100CC0006908800008008316031350088312031379
:100CD000E90083160313510883120313E8008B30D5
:100CE00078246908303E9624680E0F39EA008C306B
:100CF00078246A08093C031C812E6A08303E962439
:100D0000842E6A08373E962468080F39EA008D3031
:100D100078246A08093C031C912E6A08303E962408
:100D200008006A08373E96240800FF01EC01831290
:100D3000031304307F07F5240319E02E6E0869249D
:100D400083160313D000831203136F0869248316DC
:100D50000313D1008313D0304126D23084007F08A2
:100D6000F5248000840A7F08013EF5248000D230FB
:100D70004126D43084007F08023EF5248000840A96
:100D80007F08033EF5248000D430412683160313E8
:100D900054085002031CD32E031DE02E55085102A7
:100DA000031CD32EE02E50085202031C3B2E031DC1
:100DB000E02E51085302031C3B2E031DE02E3B2E58
:100DC0007F08053EFF00323A031D972E3E2E080095
:100DD0003427D0305B2700305B2755305B275930F4
:100DE0005B2705305B2739273427D0305B27073056
:100DF0005B2710305B2739270800ED013427D030FE
:100E00005B2700305B273427D1305B273E275827EC
:100E1000F2003927F21F003401343427D0305B2729
:100E200000305B2770085B276F085B276E085B2725
:100E300039270800ED013427D0305B2700305B27CD
:100E40003427D1305B273E2755277F39F0003E27D6
:100E500055277F39EF003E2758273F39EE003927C5
:100E600008007A278727080087277A2780278D2779
:100E700008008D27802787277A2708007A27ED0129
:100E80000830F1008727442F452F851C482F4B2F12
:100E90000310ED0D4E2F0314ED0D4E2F8D27502F07
:100EA000512FF10B422F6D0808008027942708006E
:100EB0007A2794270800F3000830F1008D270310EB
:100EC000F30D031C642F672F802794276A2F7A273E
:100ED00094276A2FF10B5F2F7A278727F101F10AF8
:100EE0000319772F85186F2F72108D270800721441
:100EF0008D2708008316031385148312031308003B
:100F000085108316031385108312031308008316BC
:100F1000031305148312031308000510831603132B
:100F2000051083120313080083160313051483129C
:100F300003139A2F9B2F051083160313051083129A
:100F40000313A22FA32F08000000000000000000E0
:100F50000000000000000000000000000000000091
:100F60000000000000000000000000000000000081
:100F70000000000000000000000000000000000071
:100F80000000000000000000000000000000000061
:100F90000000000000000000000000000000000051
:100FA0000000000000000000000000000000000041
:100FB0000000000000000000000000000000000031
:100FC0000000000000000000000000000000000021
:100FD0000000000000000000000000000000000011
:100FE0000000000000000000000000000000000001
:100FF00000000000000000000000000000000000F1
:101000000034FF340334FA340B34E0340A34FF3450
:1010100001340634003404340C34FF34FF34FF341C
:101020000134353400340F340C34FF34FF34FF34D2
:101030000134373400341D340C34FF34FF34FF34B2
:10104000FF34FF3405342C340C34FF34FF34FF34C8
:1010500000340834003431340C34FF34FF34FF34AE
:10106000FF340D34003441340C34FF34FF34FF348A
:101070000034FF34003450340C34C8340934FF34A5
:101080000134FF3400345B340C34D0340934FF3481
:101090000134FF3400346B340C34D8340934FF3459
:1010A0000134FF3400347A340C34E0340934FF3432
:1010B000FF34FF3400348A340C34E8340934FF340C
:1010C0000034173400349A340C34FF34FF34FF34C6
:1010D00001341A340034A6340C34FF34FF34FF34A6
:1010E00001341D340034B2340C34FF34FF34FF3487
:1010F000013420340034BE340C34FF34FF34FF3468
:10110000013423340034CA340C34FF34FF34FF3448
:10111000013426340034D6340C34FF34FF34FF3429
:10112000013429340034E2340C34FF34FF34FF340A
:1011300001342C340034EE340C34FF34FF34FF34EB
:1011400001342F340034FA340C34FF34FF34FF34CC
:10115000FF343234003406340D34FF34FF34FF34AE
:101160000034FF34003458340D34F0340934FF3483
:101170000134FF34003463340D34F8340934FF345F
:10118000FF34FF34003472340D3400340A34FF3439
:101190000034FF34003458340D3408340A34FF343A
:1011A0000134FF34003463340D3410340A34FF3416
:1011B000FF34FF34003472340D3418340A34FF34F1
:1011C0000034FF34003458340D3420340A34FF34F2
:1011D0000134FF34003463340D3428340A34FF34CE
:1011E000FF34FF34003472340D3430340A34FF34A9
:1011F0000034FF34003458340D3438340A34FF34AA
:101200000134FF34003463340D3440340A34FF3485
:10121000FF34FF34003472340D3448340A34FF3460
:101220000034FF34003458340D3450340A34FF3461
:101230000134FF34003463340D3458340A34FF343D
:10124000FF34FF34003472340D3460340A34FF3418
:101250000034FF34003458340D3468340A34FF3419
:101260000134FF34003463340D3470340A34FF34F5
:10127000FF34FF34003472340D3478340A34FF34D0
:101280000034FF34003458340D3480340A34FF34D1
:101290000134FF34003463340D3488340A34FF34AD
:1012A000FF34FF34003472340D3490340A34FF3488
:1012B0000034FF34003458340D3498340A34FF3489
:1012C0000134FF34003463340D34A0340A34FF3465
:1012D000FF34FF34003472340D34A8340A34FF3440
:1012E0000034FF34003458340D34B0340A34FF3441
:1012F0000134FF34003463340D34B8340A34FF341D
:10130000FF34FF34003472340D34C0340A34FF34F7
:101310000034FF34003458340D34C8340A34FF34F8
:101320000134FF34003463340D34D0340A34FF34D4
:10133000FF34FF34003472340D34D8340A34FF34AF
:101340000034FF34003413340D34E8340A34FF34ED
:10135000FF34FF34003422340D34F0340A34FF34C7
:101360000034FF34063431340D34FF34FF34FF349D
:101370000134FF34073440340D34FF34FF34FF347C
:10138000FF34FF3408344F340D34FF34FF34FF345E
:101390000134D4340B34B0340D34F9340B3401340B
:1013A0000234D8340B3481340D34F4340B3401342A
:1013B0000234E0340B3481340D34F4340B34013412
:1013C0000134E8340B3497340D34F9340B340134E0
:1013D0000234EC340B3481340D34F4340B340134E6
:1013E000013408340B34B0340D34F9340B34013487
:1013F0000234F8340A3481340D34F4340B340134BB
:10140000023400340B3481340D34F4340B340134A1
:1014100001341C340B34B0340D34F9340B34013442
:1014200002340C340B3481340D34F4340B34013475
:10143000023414340B3481340D34F4340B3401345D
:10144000013430340B34B0340D34F9340B340134FE
:10145000023420340B3481340D34F4340B34013431
:10146000023428340B3481340D34F4340B34013419
:10147000013444340B34B0340D34F9340B340134BA
:10148000023434340B3481340D34F4340B340134ED
:1014900002343C340B3481340D34F4340B340134D5
:1014A000013458340B34B0340D34F9340B34013476
:1014B000023448340B3481340D34F4340B340134A9
:1014C000023450340B3481340D34F4340B34013491
:1014D00001346C340B34B0340D34F9340B34013432
:1014E00002345C340B3481340D34F4340B34013465
:1014F000023464340B3481340D34F4340B3401344D
:10150000013480340B34B0340D34F9340B340134ED
:10151000023470340B3481340D34F4340B34013420
:10152000023478340B3481340D34F4340B34013408
:10153000013494340B34B0340D34F9340B340134A9
:10154000023484340B3481340D34F4340B340134DC
:101550000234A0340B3481340D34F4340B340134B0
:101560000134A8340B34B0340D34F9340B34013465
:10157000023498340B3481340D34F4340B34013498
:101580000234A0340B3481340D34F4340B34013480
:101590000134BC340B34B0340D34F9340B34013421
:1015A0000234AC340B3481340D34F4340B34013454
:1015B0000234B4340B3481340D34F4340B3401343C
:1015C0000334C0340B34A3340D34F6340B340534F7
:1015D0000134CC340B348B340D34F9340B340134F6
:1015E0000134D0340B348B340D34F9340B340134E2
:1015F00000340134003417340134013400343B34F6
:1016000002340134003417340334013400343B34E1
:101610000434033400340134053401340034173405
:101620000634013400343B340734013400341734B9
:101630000834013400343B340934033400340134B9
:101640000A340134003417340B34013400343B3491
:101650000C340134003417340D34013400343B347D
:101660000E340334003401340F34013400341734A1
:101670001034013400343B34113401340034173455
:101680001234013400343B34133403340034013455
:1016900014340134003417341534013400343B342D
:1016A00016340134003417341734013400343B3419
:1016B000183403340034013419340134003417343D
:1016C0001A34013400343B341B34013400341734F1
:1016D0001C34013400343B341D34033400340134F1
:1016E0001E340134003417341F34013400343B34C9
:1016F00020340134003417342134013400343B34B5
:1017000022340334003401342334013400341734D8
:101710002434013400343B3425340134003417348C
:101720002634013400343B3427340334003401348C
:1017300028340134003417342934013400343B3464
:101740002A340134003417342B34013400343B3450
:101750002C340334003401342D3401340034173474
:101760002E34013400343B342F3401340034173428
:101770003034013400343B34313403340034013428
:1017800032340134003417343334013400343B3400
:101790003434013400343B343534013400346334A0
:1017A00036340134003463343734033400340134C4
:1017B00038340134003417343934013400343B34C4
:1017C0003A340134003417343B34013400343B34B0
:1017D0003C340134003463343D34013400340C347F
:1017E0003E34013400343B34C234C534C234C534D1
:1017F000C834C334533465347434203443346C34C3
:101800006F3463346B3400345334653474342034AF
:10181000543469346D346534723473340034533461
:1018200065347434203446345334773420344434AB
:1018300065346C346134793400344D3461346E3441
:101840002E3420344F34703465347234613474343F
:1018500069346F346E340034453478346934743408
:10186000003453346534743420344334793463346D
:101870006C3465342034543469346D3465347234D6
:101880000034533465347434203441344234533496
:101890002034543469346D34653472347334003414
:1018A00053346534743420345334743461347434B0
:1018B0007534733400345334653474342034543400
:1018C00069346D3465347234203453347434613483
:1018D00072347434003453346534743420345434E2
:1018E00069346D34653472342034533474346F3455
:1018F00070340034533465347434203446346C34DA
:101900006F346F34643420344334793463346C344A
:1019100065340034533465347434203444347234C0
:10192000613469346E3420344334793463346C3434
:101930006534003453346534743420345434693499
:101940006D346534723420343134003453346534AA
:1019500074342034543469346D3465347234203432
:10196000323400345334653474342034543469349C
:101970006D34653472342034333400345334653478
:1019800074342034543469346D3465347234203402
:10199000343400345334653474342034543469346A
:1019A0006D34653472342034353400345334653446
:1019B00074342034543469346D34653472342034D2
:1019C0003634003453346534743420345434693438
:1019D0006D34653472342034373400345334653414
:1019E00074342034543469346D34653472342034A2
:1019F0003834003453346534743420345434693406
:101A00006D346534723420343934003453346534E1
:101A100074342034543469346D3465347234203471
:101A20003134303400345334653474342034553414
:101A30004634533477342034443465346C34613460
:101A40007934003453346534743420344C3446349F
:101A5000533477342034443465346C34613479340D
:101A600000344D3461346E34753461346C346C340C
:101A70007934203446346C346F346F346434003439
:101A80004D3461346E34753461346C346C34793473
:101A9000203444347234613469346E340034533445
:101AA000653474342034493464346C34653400341F
:101AB000533465347434203453347434613474349E
:101AC00075347334003453346534743420344634FC
:101AD0006C346F346F3464342034543469346D346E
:101AE00065340034533465347434203444347234EF
:101AF000613469346E342034543469346D3465345F
:101B000000342534C0345B34483448343A344D34DE
:101B10004D345D3400342534C0345B3430343034DB
:101B200030345D3420345334653463340034253428
:101B3000C0345B343034303430345D3420344D3490
:101B400069346E3400342534C0345B34483448344E
:101B50003A344D344D343A34533453345D340034D4
:101B60002534C0345B3420344F346E345D3400345B
:101B70002534803446346C346F346F3464346934C3
:101B80006E3467342E342E342E34003425348034B1
:101B900044347234613469346E3469346E34673479
:101BA0002E342E342E34003420340034593465342D
:101BB000733400344E346F3400344F344E340034B8
:101BC0004F3446344634003440308A117824DB01E7
:101BD0008A15F725DC000D308A005C088A119624EE
:101BE0008A15DB0A28305B06031DE82D08000D303E
:101BF0008A00FE305B0703188A0A820000340E3424
:101C000015341D3411340E340034003400340E34D5
:101C100011341D3415340E340034003400340E34C5
:101C20001134173415340E340034003400340E34BB
:101C30001534173411340E340034003404340E34A7
:0C1C40000E340E341F3400340434003421
:02400E00103F61
:00000001FF
